S0120000546865726D6F737461742E73726563E7
S11300000C942A000C9447000C9447000C9447006D
S11300100C9447000C9447000C9447000C94470040
S11300200C9447000C9447000C9447000C94470030
S11300300C9447000C9447000C9447000C94470020
S11300400C9447000C9447000C9447000C94470010
S11300500C94470011241FBECFE5D8E0DEBFCDBF0E
S113006010E0A0E6B0E0E0E2FBE002C005900D92F3
S1130070A439B107D9F720E0A4E9B0E001C01D928A
S1130080A13AB207E1F70E944D010C948E050C943D
S113009000000E9417020E94FB020E947201089550
S11300A00E94F70280E00E94FF029C01AEEEB2E0E3
S11300B00E9474050E94B40420E030ED4FEB54E438
S11300C00E9413040E948504609398007093990021
S11300D080939A0090939B0060E070E080E090E051
S11300E00E94800280E690E00E946D026091980078
S11300F07091990080919A0090919B000E94A202B5
S113010085E690E00E946D0269E070E080E090E096
S11301100E94800283E490E00E942A0247E650E0B5
S113012060E070E081E090E00E94970240919800C6
S11301305091990060919A0070919B008091940075
S113014090919500A0919600B0919700841795071F
S1130150A607B70718F40E94780102C00E947E0126
S11301600E9492018333E1F70E94F70260919800A4
S11301707091990080919A0090919B000895CF927C
S1130180DF92EF92FF92CF93C0E0C12CD12C760185
S113019047C00E9492018093A00090ED980F9A307E
S11301A030F590E00E942A02D701C601880F991FFA
S11301B0AA1FBB1FAC01BD01440F551F661F771F4B
S11301C0440F551F661F771F840F951FA61FB71F67
S11301D02091A000820F911DA11DB11D6C017D0114
S11301E020E3C21AD108E108F108CF5F19C0809159
S11301F09C0090919D00A0919E00B0919F00C81614
S1130200D906EA06FB0618F40E94780102C00E948F
S11302107E010E94F7026C2D7D2D8E2D9F2D03C033
S1130220C73008F4B6CFCF91FF90EF90DF90CF9016
S113023008951092A00087E790E00E946D0243E8C1
S113024050E060E070E081E090E00E9497020E943C
S113025092018093A000813319F0823371F00895E4
S11302600E94F7020E94BF0060939400709395006F
S1130270809396009093970008950E94F7020E943D
S1130280500060939C0070939D0080939E00909317
S11302909F0008950E94190108950E9449000E9438
S11302A04A01FDCF9B01AC0160E472E48FE090E071
S11302B00E944205605F73428109910921E335E19F
S11302C040E050E00E94520580E090E0DC0104C070
S11302D000000196A11DB11D82179307A407B5075D
S11302E0B8F3089541E061E081E00E9411030895AC
S11302F041E061E081E00E949203089540E061E002
S113030081E00E94920308958B3051F08C3021F0EB
S11303108A3021F48EE2089583E20895805D089581
S113032080E3089580E031C022E030E0082E02C06E
S1130330220F331F0A94E2F72ABB20952BBB94E0CB
S113034021C029B3492F50E030E0092E02C0359571
S113035027950A94E2F720FD14C029B330E0042E57
S113036002C0359527950A94E2F720FFF6CF445052
S11303705109942F990F490F840F8F5F0E948401B4
S113038008959F5F9830E8F28F5F833068F2CACF98
S1130390CF93C82F85B38F7D85BB85B38F7B85BBFA
S11303A061E070E080E090E00E94520185B38068D3
S11303B085BB61E070E080E090E00E94520182B36E
S11303C08F709C2F907F892B82BB61E070E080E06E
S11303D090E00E94520185B38F7785BB61E070E0A5
S11303E080E090E00E94520185B3806885BB61E0A3
S11303F070E080E090E00E94520122B330E1C39F9C
S1130400C0011124922F9F70892B82BB61E070E0A0
S113041080E090E00E94520185B38F7785BB61E054
S113042070E080E090E00E945201CF91089584B37F
S1130430806E84BB81B3806F81BB82E00E94C8015F
S113044088E20E94C8018CE00E94C80181E00E94F9
S1130450C8010895CF93C82F85B3806285BB85B347
S11304608F7B85BB85B3806885BB82B38F709C2FDF
S1130470907F892B82BB61E070E080E090E00E9475
S1130480520185B38F7785BB61E070E080E090E036
S11304900E94520185B3806885BB61E070E080E012
S11304A090E00E94520122B330E1C39FC0011124A5
S11304B0922F9F70892B82BB61E070E080E090E016
S11304C00E94520185B38F7785BB61E070E080E0C4
S11304D090E00E945201CF9108950F931F93CF9300
S11304E08C01C0E003C00E942A02CF5FF801EC0F28
S11304F0F11D80818111F7CFCF911F910F91089544
S1130500813031F070F0823031F0833039F00AC03C
S113051090E4960F07C090E1960F04C090E5960F03
S113052001C0962F892F80680E94C8010895CF9337
S1130530DF93EA010E948002CE010E946D02DF91E6
S1130540CF9108951F93CF93DF93CDB7DEB7649710
S11305500FB6F894DEBF0FBECDBFFE01319624E185
S1130560DF011D922A95E9F7611571058105910551
S113057021F420E3298311E015C010E013C02AE020
S113058030E040E050E00E945205E1E0F0E0EC0F82
S1130590FD1FE10FF11D605D60831F5F622F732FEC
S11305A0842F952F611571058105910541F711502F
S11305B00CC0E1E0F0E0EC0FFD1FE10FF11D17FDB1
S11305C0FA9580810E942A021150112394F76AE05F
S11305D070E080E090E00E94520164960FB6F894B7
S11305E0DEBF0FBECDBFDF91CF911F91089581E093
S11305F00E94C801089517B883E886B908958770E2
S113060097B1907E97B997B1892B87B986B18064E9
S113061086B9349BFECF86B1806186B984B195B129
S11306200895843008F078C0683008F077C08130CD
S113063011F130F08230D1F1833009F452C070C02E
S113064041110DC02AB381E090E002C0880F991FC8
S11306506A95E2F7809582238ABB81E008952AB3E4
S113066081E090E002C0880F991F6A95E2F7822B1F
S11306708ABB81E0089541110DC027B381E090E069
S113068002C0880F991F6A95E2F78095822387BB81
S113069081E0089527B381E090E002C0880F991F9C
S11306A06A95E2F7822B87BB81E0089541110DC062
S11306B024B381E090E002C0880F991F6A95E2F7A5
S11306C08095822384BB81E0089524B381E090E087
S11306D002C0880F991F6A95E2F7822B84BB81E0E0
S11306E0089541110DC021B381E090E002C0880F4C
S11306F0991F6A95E2F78095822381BB81E0089572
S113070021B381E090E002C0880F991F6A95E2F757
S1130710822B81BB81E008958FEF08958FEF0895B8
S113072081E00895843008F078C0683008F077C01C
S1130730813011F130F08230D1F1833009F452C0AC
S113074070C0413061F42BB381E090E002C0880FA7
S1130750991F6A95E2F7822B8BBB81E008952BB336
S113076081E090E002C0880F991F6A95E2F78095B6
S113077082238BBB81E00895413061F428B381E08A
S113078090E002C0880F991F6A95E2F7822B88BB1C
S113079081E0089528B381E090E002C0880F991F9A
S11307A06A95E2F78095822388BB81E00895413001
S11307B061F425B381E090E002C0880F991F6A9527
S11307C0E2F7822B85BB81E0089525B381E090E0B8
S11307D002C0880F991F6A95E2F78095822385BB32
S11307E081E00895413061F422B381E090E002C0D9
S11307F0880F991F6A95E2F7822B82BB81E00895E6
S113080022B381E090E002C0880F991F6A95E2F755
S11308108095822382BB81E008958FEF08958FEF46
S1130820089581E008950E9427040C9408050E940D
S1130830010558F00E94FA0440F029F45F3F29F0C2
S11308400C94F10451110C943C050C94F7040E948F
S1130850190568F39923B1F3552391F3951B550BAF
S1130860BB27AA2762177307840738F09F5F5F4F7F
S1130870220F331F441FAA1FA9F335D00E2E3AF0BE
S1130880E0E832D091505040E695001CCAF72BD0D6
S1130890FE2F29D0660F771F881FBB1F2617370727
S11308A04807AB07B0E809F0BB0B802DBF01FF2759
S11308B093585F4F3AF09E3F510578F00C94F10441
S11308C00C943C055F3FE4F3983ED4F3869577950A
S11308D06795B795F7959F5FC9F7880F911D969512
S11308E0879597F90895E1E0660F771F881FBB1F6E
S11308F0621773078407BA0720F0621B730B840B1B
S1130900BA0BEE1F88F7E09508950E94210588F040
S11309109F5798F0B92F9927B751B0F0E1F0660FBF
S1130920771F881F991F1AF0BA95C9F714C0B13000
S113093091F00E943B05B1E008950C943B05672FAC
S1130940782F8827B85F39F0B93FCCF3869577952F
S11309506795B395D9F73EF4909580957095619518
S11309607F4F8F4F9F4F0895E89409C097FB3EF443
S113097090958095709561957F4F8F4F9F4F9923E8
S1130980A9F0F92F96E9BB279395F6958795779566
S11309906795B795F111F8CFFAF4BB0F11F460FF26
S11309A01BC06F5F7F4F8F4F9F4F16C0882311F07E
S11309B096E911C0772321F09EE8872F762F05C092
S11309C0662371F096E8862F70E060E02AF09A952D
S11309D0660F771F881FDAF7880F9695879597F922
S11309E0089597F99F6780E870E060E008959FEFAD
S11309F080EC089500240A941616170618060906B2
S1130A00089500240A941216130614060506089580
S1130A10092E0394000C11F4882352F0BB0F40F408
S1130A20BF2B11F460FF04C06F5F7F4F8F4F9F4F48
S1130A30089557FD9058440F551F59F05F3F71F0CA
S1130A404795880F97FB991F61F09F3F79F0879531
S1130A500895121613061406551FF2CF4695F1DFBA
S1130A6008C0161617061806991FF1CF869571054A
S1130A70610508940895E894BB2766277727CB017E
S1130A8097F90895DB018F939F930E948305BF918B
S1130A90AF91A29F800D911DA39F900DB29F900DC9
S1130AA011240895A1E21A2EAA1BBB1BFD010DC03F
S1130AB0AA1FBB1FEE1FFF1FA217B307E407F5070A
S1130AC020F0A21BB30BE40BF50B661F771F881FE6
S1130AD0991F1A9469F760957095809590959B017C
S1130AE0AC01BD01CF010895A29FB001B39FC00125
S1130AF0A39F700D811D1124911DB29F700D811D46
S1130B001124911D08950E947405A59F900DB49F12
S1130B10900DA49F800D911D11240895F894FFCF8A
S1130B2054656D703D20005052455353203320547A
S1130B304F204558495400312D2053657420546585
S1130B406D7000322D20446973706C617920546596
S1070B506D700000C0
S9030000FC
