S00B00004932632E737265633B
S11300000C942A000C943C000C943C000C943C008E
S11300100C943C000C943C000C943C000C943C006C
S11300200C943C000C943C000C943C000C943C005C
S11300300C943C000C943C000C943C000C943C004C
S11300400C943C000C943C000C943C000C943C003C
S11300500C943C0011241FBECFE5D8E0DEBFCDBF19
S113006020E0A0E6B0E001C01D92A236B207E1F79D
S11300700E943E000C94B2000C94000061E080E009
S11300800E944F008EE00E949B0080E690E00E9458
S1130090A4006091600080E00E948100F6CF84306B
S11300A060F5813079F028F08230A9F08330E1F0F6
S11300B026C0613021F48FEF8ABB81E008951ABA1B
S11300C081E00895613021F48FEF87BB81E00895CA
S11300D017BA81E00895613021F48FEF84BB81E089
S11300E0089514BA81E00895613021F48FEF81BB43
S11300F081E0089511BA81E008958FEF089581E0B9
S113010008958430A0F4813049F028F0823049F019
S1130110833051F00EC06BBB81E0089568BB81E071
S1130120089565BB81E0089562BB81E008958FEF77
S1130130089581E0089593E091B982B984E486BF7B
S113014084E180B980E00895009751F024EC26BF43
S113015006B607FEFDCF23B1FC01208380E008959D
S10B016081E00895F894FFCF3B
S9030000FC
