:100000000C942A000C9434000C9434000C943400AA
:100010000C9434000C9434000C9434000C94340090
:100020000C9434000C9434000C9434000C94340080
:100030000C9434000C9434000C9434000C94340070
:100040000C9434000C9434000C9434000C94340060
:100050000C94340011241FBECFE5D8E0DEBFCDBF25
:100060000E9455000C9470000C94000093E091B92C
:1000700082B984E486BF84E180B980E0089584EA8F
:1000800086BF06B607FEFDCF80E0089583B984E8F9
:1000900086BF06B607FEFDCF80E0089584E986BFDF
:1000A00006B602FCFDCF80E0089582E00E94360093
:1000B00080E090E0DC0103C00196A11DB11D8035F8
:1000C00023EC9207A105B105B8F30E943F008EE032
:1000D0000E94460081E40E9446000E944E00F5CF37
:0400E000F894FFCFC2
:00000001FF
