S00B00004932632E737265633B
S11300000C942A000C9434000C9434000C943400A6
S11300100C9434000C9434000C9434000C9434008C
S11300200C9434000C9434000C9434000C9434007C
S11300300C9434000C9434000C9434000C9434006C
S11300400C9434000C9434000C9434000C9434005C
S11300500C94340011241FBECFE5D8E0DEBFCDBF21
S11300600E9436000C9470000C94000082E00E9400
S1130070510080E090E0DC0103C00196A11DB11D98
S1130080803523EC9207A105B105B8F30E945A000C
S11300908EE00E94610081E40E9461000E94690078
S11300A0F5CF93E091B982B984E486BF84E180B945
S11300B080E0089584EA86BF06B607FEFDCF80E09F
S11300C0089583B984E886BF06B607FEFDCF80E0B5
S11300D0089584E986BF06B602FCFDCF80E008954A
S10700E0F894FFCFBE
S9030000FC
