:100000000C942A000C943C000C943C000C943C0092
:100010000C943C000C943C000C943C000C943C0070
:100020000C943C000C943C000C943C000C943C0060
:100030000C943C000C943C000C943C000C943C0050
:100040000C943C000C943C000C943C000C943C0040
:100050000C943C0011241FBECFE5D8E0DEBFCDBF1D
:1000600020E0A0E6B0E001C01D92AC37B207E1F796
:100070000E947D000C9400020C9400000E94C601B6
:100080000E94D30141E064E081E00E948200089573
:1000900080E690E00E94E20140E064E081E00E949E
:1000A000450110927500E0917500F0E0E05AFF4FB5
:1000B00080810E94CB0180E090E0DC0103C00196CA
:1000C000A11DB11D803523EC9207A105B105B8F340
:1000D000E0917500EF5FE0937500F0E0E15AFF4FAB
:1000E00080818111E0CF41E064E081E00E94450120
:1000F00060E080E00E94030108950E943E000E949B
:100100004800FDCF843008F078C0683008F077C030
:10011000813011F130F08230D1F1833009F452C0D6
:1001200070C041110DC02AB381E090E002C0880F79
:10013000991F6A95E2F7809582238ABB81E0089532
:100140002AB381E090E002C0880F991F6A95E2F718
:10015000822B8ABB81E0089541110DC027B381E055
:1001600090E002C0880F991F6A95E2F7809582237C
:1001700087BB81E0089527B381E090E002C0880F3B
:10018000991F6A95E2F7822B87BB81E008954111A0
:100190000DC024B381E090E002C0880F991F6A95DA
:1001A000E2F78095822384BB81E0089524B381E047
:1001B00090E002C0880F991F6A95E2F7822B84BBFA
:1001C00081E0089541110DC021B381E090E002C0AB
:1001D000880F991F6A95E2F78095822381BB81E0A1
:1001E000089521B381E090E002C0880F991F6A95BD
:1001F000E2F7822B81BB81E008958FEF08958FEFA6
:10020000089581E008958430D0F56830D0F58130CC
:1002100091F028F08230D9F0833029F134C02BB32B
:1002200081E090E002C0880F991F6A95E2F782276B
:100230008BBB81E0089528B381E090E002C0880F75
:10024000991F6A95E2F7822788BB81E0089525B35C
:1002500081E090E002C0880F991F6A95E2F782273B
:1002600085BB81E0089522B381E090E002C0880F51
:10027000991F6A95E2F7822782BB81E008958FEF8C
:1002800008958FEF089581E00895843008F078C0D4
:10029000683008F077C0813011F130F08230D1F150
:1002A000833009F452C070C0413061F42BB381E057
:1002B00090E002C0880F991F6A95E2F7822B8BBBF2
:1002C00081E008952BB381E090E002C0880F991F70
:1002D0006A95E2F7809582238BBB81E008954130D7
:1002E00061F428B381E090E002C0880F991F6A95FD
:1002F000E2F7822B88BB81E0089528B381E090E08B
:1003000002C0880F991F6A95E2F78095822388BB07
:1003100081E00895413061F425B381E090E002C0AE
:10032000880F991F6A95E2F7822B85BB81E00895BB
:1003300025B381E090E002C0880F991F6A95E2F72B
:100340008095822385BB81E00895413061F422B31A
:1003500081E090E002C0880F991F6A95E2F7822B36
:1003600082BB81E0089522B381E090E002C0880F53
:10037000991F6A95E2F78095822382BB81E00895F8
:100380008FEF08958FEF089581E0089580EA87BB8D
:1003900085E58DB908958FB9779BFECF8EB18068C2
:1003A0008EB98FB1089583E389B910BC88E18AB909
:1003B00086E880BD08955F9BFECF8CB19BB19068AD
:1003C0009BB90895EF92FF920F931F93CF938C01E7
:1003D000C0E07801EC0EF11C0E94DB01F701808384
:1003E000CF5FEC2FF0E03197E00FF11F80818D306F
:1003F00081F71082CF911F910F91FF90EF90089598
:04040000F894FFCF9E
:00000001FF
