:100000000C942A000C9447000C9447000C94470071
:100010000C9447000C9447000C9447000C94470044
:100020000C9447000C9447000C9447000C94470034
:100030000C9447000C9447000C9447000C94470024
:100040000C9447000C9447000C9447000C94470014
:100050000C94470011241FBECFE5D8E0DEBFCDBF12
:1000600010E0A0E6B0E0EEE7F4E002C005900D92EB
:10007000A038B107D9F720E0A0E8B0E001C01D9298
:10008000AF39B207E1F70E94E4000C943D020C94F2
:1000900000000E94FB010E94E900089589E990E0B8
:1000A0000E94210280919900833751F590919A0026
:1000B000943731F590919B00913611F590919C0009
:1000C0009237F1F490919D009437D1F461E082E091
:1000D0000E94F90060E080E00E94F90060E081E0A9
:1000E0000E94F9008BE0E0E6F0E0A1E8B0E00190CA
:1000F0000D928A95E1F781E890E00E940E02089542
:10010000833731F590919A00943711F590919B00C7
:100110009F36F1F490919C009037D1F460E082E03A
:100120000E94F90061E080E00E94F90060E081E057
:100130000E94F90089E0EBE6F0E0A1E8B0E0019070
:100140000D928A95E1F781E890E00E940E020895F1
:10015000873731F590919A00913611F590919B0077
:100160009936F1F490919C009437D1F460E082E0EC
:100170000E94F90060E080E00E94F90061E081E007
:100180000E94F9008CE0E4E7F0E0A1E8B0E0019023
:100190000D928A95E1F781E890E00E940E020895A1
:1001A000813689F480919A00843769F4E1E8F0E0BF
:1001B0008FE49BE6918380838DE090E0938382833C
:1001C000CF010E940E0208950E9449000E944E0035
:1001D000FDCF41E060E080E00E94FF0041E061E08F
:1001E00080E00E94FF0041E062E080E00E94FF00AA
:1001F0000895462F682F80E00E947D0108954130C8
:10020000C1F5813091F028F08230D9F0833029F1A6
:100210006EC02AB381E090E002C0880F991F6A95F2
:10022000E2F7822B8ABB81E0089527B381E090E05A
:1002300002C0880F991F6A95E2F7822B87BB81E085
:10024000089524B381E090E002C0880F991F6A9559
:10025000E2F7822B84BB81E0089521B381E090E036
:1002600002C0880F991F6A95E2F7822B81BB81E05B
:10027000089541113EC0813099F028F08230E9F0B4
:10028000833041F138C02AB381E090E002C0880F8A
:10029000991F6A95E2F7809582238ABB81E00895D1
:1002A00027B381E090E002C0880F991F6A95E2F7BA
:1002B0008095822387BB81E0089524B381E090E09C
:1002C00002C0880F991F6A95E2F78095822384BB4C
:1002D00081E0089521B381E090E002C0880F991F6A
:1002E0006A95E2F78095822381BB81E008958FEFC4
:1002F00008958FEF08958FEF08954130C1F5813053
:1003000091F028F08230D9F0833029F16EC02BB300
:1003100081E090E002C0880F991F6A95E2F7822B76
:100320008BBB81E0089528B381E090E002C0880F84
:10033000991F6A95E2F7822B88BB81E0089525B367
:1003400081E090E002C0880F991F6A95E2F7822B46
:1003500085BB81E0089522B381E090E002C0880F60
:10036000991F6A95E2F7822B82BB81E008954111C3
:100370003EC0813099F028F08230E9F0833041F1BD
:1003800038C02BB381E090E002C0880F991F6A95B6
:10039000E2F7809582238BBB81E0089528B381E04A
:1003A00090E002C0880F991F6A95E2F7809582233A
:1003B00088BB81E0089525B381E090E002C0880FFA
:1003C000991F6A95E2F78095822385BB81E00895A5
:1003D00022B381E090E002C0880F991F6A95E2F78E
:1003E0008095822382BB81E008958FEF08958FEF7F
:1003F00008958FEF089583E389B910BC88E18AB925
:1004000086E880BD08955D9BFECF8CB908955F9B03
:10041000FECF8CB19BB190689BB908950F931F9349
:10042000CF938C01C0E003C00E940302CF5FF801AC
:10043000EC0FF11D80818111F7CFCF911F910F91AA
:100440000895EF92FF920F931F93CF938C01C0E01A
:100450007801EC0EF11C0E940702F7018083CF5F48
:10046000F801EC0FF11D319780818D3089F7CF9124
:0E0470001F910F91FF90EF900895F894FFCF29
:10047E00477265656E49734F6B0D00526564497323
:10048E004F6B0D0059656C6C6F7749734F6B0D0098
:00000001FF
