S01100005350495F536C6176652E73726563CD
S11300000C942A000C943C000C943C000C943C008E
S11300100C943C000C943C000C943C000C943C006C
S11300200C943C000C943C000C943C000C943C005C
S11300300C943C000C943C000C943C000C943C004C
S11300400C943C000C943C000C943C000C943C003C
S11300500C943C0011241FBECFE5D8E0DEBFCDBF19
S113006020E0A0E6B0E001C01D92A337B207E1F79B
S11300700E9466000C94CF000C9400000E949D0026
S11300800E94AA0061E080E00E946B000895CF9373
S1130090DF9310926C00C0916C00D0E089E00E9464
S11300A0A200C359DF4F8883E0916C00EF5FE093B7
S11300B06C00F0E0E459FF4F80818111ECCF8DE6B4
S11300C090E00E94B600DF91CF9108950E943E0017
S11300D00E944700FDCF843060F5813079F028F02C
S11300E08230A9F08330E1F026C0613021F48FEF33
S11300F08ABB81E008951ABA81E00895613021F441
S11301008FEF87BB81E0089517BA81E008956130CD
S113011021F48FEF84BB81E0089514BA81E008953F
S1130120613021F48FEF81BB81E0089511BA81E041
S113013008958FEF089581E0089580E487BB85E4F6
S11301408DB908958FB9779BFECF8EB180688EB933
S11301508FB1089583E389B910BC88E18AB986E830
S113016080BD08955D9BFECF8CB908950F931F93B6
S1130170CF938C01C0E003C00E94B200CF5FF801AE
S1130180EC0FF11D80818D3011F08111F5CF8DE0E0
S11301900E94B20080E0CF911F910F910895F894CE
S10501A0FFCF8B
S9030000FC
