:100000000C942A000C9434000C9434000C943400AA
:100010000C9434000C9434000C9434000C94340090
:100020000C9434000C9434000C9434000C94340080
:100030000C9434000C9434000C9434000C94340070
:100040000C9434000C9434000C9434000C94340060
:100050000C94340011241FBECFE5D8E0DEBFCDBF25
:100060000E9436000C9493000C940000CF93DF9311
:10007000CDB7DEB72A970FB6F894DEBF0FBECDBF5F
:100080000E944B00CE0101960E947700CE0101969E
:100090000E945E00F7CF83E389B910BC88E18AB97A
:1000A00086E880BD08955D9BFECF8CB908955F9B67
:1000B000FECF8CB19BB190689BB908950F931F93AD
:1000C000CF938C01C0E003C00E945300CF5FF801C2
:1000D000EC0FF11D80818D3011F08111F5CF8DE095
:1000E0000E94530080E0CF911F910F910895EF92ED
:1000F000FF920F931F93CF938C01C0E07801EC0E19
:10010000F11C0E945700F7018083CF5FF801EC0FCC
:10011000F11D319780818D3089F7CF911F910F911B
:0A012000FF90EF900895F894FFCFD0
:00000001FF
