:100000000C942A000C9447000C9447000C94470071
:100010000C9447000C9447000C9447000C94470044
:100020000C9447000C9447000C9447000C94470034
:100030000C9447000C9447000C9447000C94470024
:100040000C9447000C9447000C9447000C94470014
:100050000C94470011241FBECFE5D8E0DEBFCDBF12
:1000600010E0A0E6B0E0E6EBF3E002C005900D92F0
:10007000A03AB107D9F720E0A0EAB0E001C01D9294
:10008000AD3AB207E1F70E9449000C94D9010C94F3
:10009000000083E00E9419010E94910180EA90E033
:1000A0000E94BD018091A000873509F068C0909141
:1000B000A100923509F063C09091A200993409F033
:1000C0005EC09091A300943509F059C09091A400AE
:1000D000953409F054C080E690E00E94A40180EAC3
:1000E00090E00E94BD018091A000803309F042C0E1
:1000F0008091A1008837F1F58091A2008A3318F031
:1001000087508093A200E0EAF0E08281282F2295B8
:10011000207F93819A3318F097509093A300809199
:10012000A300820F80538093AC0087E790E00E9489
:10013000A4010E949D018093AB008AE790E00E9499
:10014000A40187E790E00E94A4018091AC00609137
:10015000AB0090E00E941C0180E090E0DC0103C055
:100160000196A11DB11D803325E79207A105B105B8
:10017000B8F38FCF8CE790E00E94A4018ACF82353C
:1001800009F052C08091A100853409F04DC08091E2
:10019000A200813409F048C08091A300843409F0A2
:1001A00043C08AE890E00E94A40180EA90E00E94A7
:1001B000BD018091A000803391F58091A100883726
:1001C00071F58091A2008A3318F087508093A200C5
:1001D000E0EAF0E08281282F2295207F93819A33F4
:1001E00018F097509093A3008091A300820F805342
:1001F0008093AC0087E790E00E94A4018091AC005E
:100200006BEA70E090E00E943B018091AB0090E0CF
:100210000E9499018AE790E00E94A4013ACF8CE7FE
:1002200090E00E94A40135CF8CE790E00E94A401E9
:1002300030CF0E94670108951F93CF93DF93EC01A5
:10024000162F0E947001CE0188279770880F892F82
:10025000881F990B9195806A0E9477018C2F0E94CC
:100260007701812F0E9477010E947F0181E0DF9159
:10027000CF911F910895EF92FF920F931F93CF9309
:10028000DF938C017B010E947001E801CC27D770BD
:10029000CC0FCD2FCC1FDD0BD1958C2F806A0E9407
:1002A0007701802F0E9477010E9470018C2F816A54
:1002B0000E947701C7010E9483010E947F0181E0B3
:1002C000DF91CF911F910F91FF90EF90089593E0F0
:1002D00091B982B984E486BF84E180B980E0089551
:1002E00084EA86BF06B607FEFDCF80E0089583B995
:1002F00084E886BF06B607FEFDCF80E0089584E956
:1003000086BF80E00895009751F024E826BF06B626
:1003100007FEFDCF23B1FC01208380E0089581E03A
:10032000089583E389B910BC88E18AB986E880BD65
:1003300008955D9BFECF8CB908955F9BFECF8CB175
:100340009BB190689BB908950F931F93CF938C0135
:10035000C0E003C00E949901CF5FF801EC0FF11DCE
:1003600080818D3011F08111F5CF8DE00E949901CF
:1003700080E0CF911F910F910895EF92FF920F931C
:100380001F93CF938C01C0E07801EC0EF11C0E940A
:100390009D01F7018083CF5FF801EC0FF11D3197CC
:1003A00080818D3089F7CF911F910F91FF90EF9051
:0603B0000895F894FFCF50
:1003B600577269746520636F6D6D616E6420726536
:1003C600636965766564004F4B000D0077726F6E4A
:1003D6006720636F6D6D616E6400526561642063B2
:1003E6006F6D6D616E642072656369657665640024
:00000001FF
